:1000000012C02CC02BC02AC06DC028C027C026C07B
:1000100025C024C023C022C021C020C01FC01EC0D4
:100020001DC0E3C11BC011241FBECFE5D4E0DEBF5D
:10003000CDBF10E0A0E6B0E0E2ECF4E002C0059035
:100040000D92AC36B107D9F710E0ACE6B0E001C0D4
:100050001D92A939B107E1F788D031C2D1CF809183
:100060006000813081F480916C0090916D00019668
:1000700090936D0080936C000897C9F410926D0006
:1000800010926C0014C0882391F480916C009091C0
:100090006D00019790936D0080936C008F5F9F4F70
:1000A00031F487E090E090936D0080936C00E091D4
:1000B0006C00F0916D00ED59FF4F808182BB089577
:1000C0009FB7F89485E085BD89B7806489BF14BC6B
:1000D0009FBF789408958FB7F89499B719BE8FBFD2
:1000E000789408951F920F920FB60F9211248F9358
:1000F0009F9381E090E090937100809370009F91B6
:100100008F910F900FBE0F901F90189520E030E058
:1001100042EE54E005C0FA013197F1F72F5F3F4FEF
:1001200028173907C0F308952FB7F89491EA9FBDB7
:100130008EBD2FBF08952FB7F89490E09BBD8ABD68
:1001400070E079BD68BD2FBF089580EF81BB82BB91
:1001500087B3866087BB089514BA8FE085BB83B3ED
:1001600080958F70880FEBD00895DF92EF92FF9209
:100170000F931F93DF93CF9300D000D0CDB7DEB79E
:1001800080EF81BB82BB87B3866087BB9FB7F89443
:1001900081EA8FBD83E08EBD9FBF7894DDDFFAD00A
:1001A0007E010894E11CF11C31EAD32E0FEF10E020
:1001B00080917000909171000197B9F59091620063
:1001C000892F81508E3FA8F42091720030917300E6
:1001D0008091610090E028173907ECF040DF109221
:1001E00073001092720080916200815080936200CF
:1001F00018C09F3FD1F4209172003091730080911C
:10020000610090E02817390734F029DF109273005D
:100210001092720006C02F5F3F4F309373002093FF
:10022000720010927100109270008FD0882309F034
:10023000BFCF809174008370833009F0B9CFC701BC
:1002400063E0B3D08981823811F1833850F48B3167
:1002500009F46CC08C3109F465C08A3109F06CC0B6
:100260004DC0813AF9F0823A20F4843809F064C034
:1002700033C0853A19F18A3A09F05EC08A8190E06C
:1002800024E0880F991F2A95E1F782BB56C08FB7EB
:10029000F8942A8130E03BBD2ABD2B8130E039BD86
:1002A00028BD23C090B38A8182958073907C892B6E
:1002B00082BB8B8190E09BBD8ABD3FC090B38A8199
:1002C0008295880F880F807C9073892B82BB8B81ED
:1002D00090E099BD88BD31C09A81892F81508530C9
:1002E00030F48FB7F894DFBC9EBD8FBF26C09FB798
:1002F000F894DFBC83E08EBD9FBF1FC08FB7F8941A
:1003000099B719BE8FBF78948A81809360008B81E2
:1003100080936100D5DE8FB7F8941BBD0ABD19BD6F
:1003200008BDE3CF8A818093620007C08FB7F8943D
:1003300099B719BE8FBF789400002CD039CF82B9FD
:100340008FEF83B984E086BF089586B781700895E2
:1003500006B600FCFDCF80916B000895482F292F31
:1003600006B600FCFDCF60937500A7E7B0E0842FD0
:10037000922F9C01F90102C081918D938E2F841BD5
:100380008617D0F31092740088EF80936B0085EC91
:1003900086BF089506B600FCFDCF1092740088EF6A
:1003A00080936B0085EC86BF0895AC0106B600FC17
:1003B000FDCF8091740080FF14C020E030E00AC0BF
:1003C000FA01E20FF31FD901A958BF4F8C91808326
:1003D0002F5F3F4F2617A0F3809174008D7F80938D
:1003E000740080917400817008951F920F920FB66F
:1003F0000F9211248F939F93EF93FF9381B18039D4
:10040000F1F1813940F4803769F18038C1F18036EB
:1004100009F047C02CC0883A59F0893A20F4803A54
:1004200009F03FC041C0883B29F0803CD1F50EC0A7
:100430001092760090917600E92FF0E0E958FF4F96
:10044000808183B99F5F9093760029C09091760058
:1004500080917500981729F58091740081608093D0
:10046000740022C080917400846080937400809135
:1004700074008260809374001092760010C08091A6
:10048000760093B1E82FF0E0E958FF4F90838F5F3B
:10049000809376008091740081608093740085EC75
:1004A00004C081B180936B0084E086BFFF91EF911F
:1004B0009F918F910F900FBE0F901F901895F894F9
:0204C000FFCF6C
:0C04C2000164FF1030206040C08090F802
:00000001FF
